{
  "contractName": "Donation",
  "abi": [
    {
      "constant": true,
      "inputs": [
        {
          "name": "",
          "type": "address"
        }
      ],
      "name": "beneficiaries",
      "outputs": [
        {
          "name": "",
          "type": "address"
        }
      ],
      "payable": false,
      "stateMutability": "view",
      "type": "function"
    },
    {
      "constant": true,
      "inputs": [],
      "name": "lastTimestamp",
      "outputs": [
        {
          "name": "",
          "type": "uint256"
        }
      ],
      "payable": false,
      "stateMutability": "view",
      "type": "function"
    },
    {
      "constant": true,
      "inputs": [],
      "name": "superAdmin",
      "outputs": [
        {
          "name": "",
          "type": "address"
        }
      ],
      "payable": false,
      "stateMutability": "view",
      "type": "function"
    },
    {
      "constant": true,
      "inputs": [
        {
          "name": "",
          "type": "address"
        }
      ],
      "name": "privilegesBalances",
      "outputs": [
        {
          "name": "",
          "type": "uint256"
        }
      ],
      "payable": false,
      "stateMutability": "view",
      "type": "function"
    },
    {
      "constant": true,
      "inputs": [],
      "name": "fixedValue",
      "outputs": [
        {
          "name": "",
          "type": "uint256"
        }
      ],
      "payable": false,
      "stateMutability": "view",
      "type": "function"
    },
    {
      "constant": true,
      "inputs": [],
      "name": "privilegeRequest",
      "outputs": [
        {
          "name": "",
          "type": "address"
        }
      ],
      "payable": false,
      "stateMutability": "view",
      "type": "function"
    },
    {
      "constant": true,
      "inputs": [],
      "name": "beneficiaryCount",
      "outputs": [
        {
          "name": "",
          "type": "uint256"
        }
      ],
      "payable": false,
      "stateMutability": "view",
      "type": "function"
    },
    {
      "constant": true,
      "inputs": [
        {
          "name": "",
          "type": "address"
        }
      ],
      "name": "privileges",
      "outputs": [
        {
          "name": "",
          "type": "bool"
        }
      ],
      "payable": false,
      "stateMutability": "view",
      "type": "function"
    },
    {
      "constant": true,
      "inputs": [
        {
          "name": "",
          "type": "uint256"
        }
      ],
      "name": "beneficiaryPositions",
      "outputs": [
        {
          "name": "",
          "type": "address"
        }
      ],
      "payable": false,
      "stateMutability": "view",
      "type": "function"
    },
    {
      "inputs": [],
      "payable": false,
      "stateMutability": "nonpayable",
      "type": "constructor"
    },
    {
      "payable": true,
      "stateMutability": "payable",
      "type": "fallback"
    },
    {
      "anonymous": false,
      "inputs": [
        {
          "indexed": false,
          "name": "benef",
          "type": "address"
        },
        {
          "indexed": false,
          "name": "amount",
          "type": "uint256"
        }
      ],
      "name": "evtSendSuccess",
      "type": "event"
    },
    {
      "constant": false,
      "inputs": [
        {
          "name": "_privilege",
          "type": "address"
        },
        {
          "name": "_beneficiary",
          "type": "address"
        }
      ],
      "name": "registerBeneficiary",
      "outputs": [],
      "payable": false,
      "stateMutability": "nonpayable",
      "type": "function"
    },
    {
      "constant": false,
      "inputs": [
        {
          "name": "_value",
          "type": "uint256"
        }
      ],
      "name": "updatePrivileges",
      "outputs": [],
      "payable": false,
      "stateMutability": "nonpayable",
      "type": "function"
    },
    {
      "constant": true,
      "inputs": [],
      "name": "getBeneficiaryCount",
      "outputs": [
        {
          "name": "",
          "type": "uint256"
        }
      ],
      "payable": false,
      "stateMutability": "view",
      "type": "function"
    },
    {
      "constant": true,
      "inputs": [
        {
          "name": "_beneficiary",
          "type": "address"
        }
      ],
      "name": "getPrivilegeAdr",
      "outputs": [
        {
          "name": "",
          "type": "address"
        }
      ],
      "payable": false,
      "stateMutability": "view",
      "type": "function"
    },
    {
      "constant": true,
      "inputs": [
        {
          "name": "_privilege",
          "type": "address"
        }
      ],
      "name": "getPrivileges",
      "outputs": [
        {
          "name": "",
          "type": "uint256"
        }
      ],
      "payable": false,
      "stateMutability": "view",
      "type": "function"
    },
    {
      "constant": false,
      "inputs": [
        {
          "name": "_privilegeRequest",
          "type": "address"
        }
      ],
      "name": "setPrivilegeRequestAddress",
      "outputs": [],
      "payable": false,
      "stateMutability": "nonpayable",
      "type": "function"
    },
    {
      "constant": false,
      "inputs": [],
      "name": "distribute",
      "outputs": [],
      "payable": false,
      "stateMutability": "nonpayable",
      "type": "function"
    }
  ],
  "bytecode": "0x6080604052662386f26fc10000600355635b5086bb60045534801561002357600080fd5b50336000806101000a81548173ffffffffffffffffffffffffffffffffffffffff021916908373ffffffffffffffffffffffffffffffffffffffff1602179055506000600281905550610f938061007b6000396000f3006080604052600436106100e6576000357c0100000000000000000000000000000000000000000000000000000000900463ffffffff16806301567739146100e85780630a151d6a1461016b57806314a6efd7146101c257806319d8ac61146101ef57806329575f6a1461021a57806337c604b9146102715780633ea5dde9146102c857806344ad061c146102f3578063734b2a7c1461034a578063809a43cd146103755780639a6e7fd1146103b8578063bec64dbe146103e3578063c066a5b114610446578063e4fc6b6d146104a1578063f58e4768146104b8578063f95527b61461053b575b005b3480156100f457600080fd5b50610129600480360381019080803573ffffffffffffffffffffffffffffffffffffffff1690602001909291905050506105a8565b604051808273ffffffffffffffffffffffffffffffffffffffff1673ffffffffffffffffffffffffffffffffffffffff16815260200191505060405180910390f35b34801561017757600080fd5b506101ac600480360381019080803573ffffffffffffffffffffffffffffffffffffffff1690602001909291905050506105db565b6040518082815260200191505060405180910390f35b3480156101ce57600080fd5b506101ed60048036038101908080359060200190929190505050610624565b005b3480156101fb57600080fd5b5061020461071b565b6040518082815260200191505060405180910390f35b34801561022657600080fd5b5061022f610721565b604051808273ffffffffffffffffffffffffffffffffffffffff1673ffffffffffffffffffffffffffffffffffffffff16815260200191505060405180910390f35b34801561027d57600080fd5b506102b2600480360381019080803573ffffffffffffffffffffffffffffffffffffffff169060200190929190505050610746565b6040518082815260200191505060405180910390f35b3480156102d457600080fd5b506102dd61075e565b6040518082815260200191505060405180910390f35b3480156102ff57600080fd5b50610308610764565b604051808273ffffffffffffffffffffffffffffffffffffffff1673ffffffffffffffffffffffffffffffffffffffff16815260200191505060405180910390f35b34801561035657600080fd5b5061035f61078a565b6040518082815260200191505060405180910390f35b34801561038157600080fd5b506103b6600480360381019080803573ffffffffffffffffffffffffffffffffffffffff169060200190929190505050610790565b005b3480156103c457600080fd5b506103cd61082f565b6040518082815260200191505060405180910390f35b3480156103ef57600080fd5b50610444600480360381019080803573ffffffffffffffffffffffffffffffffffffffff169060200190929190803573ffffffffffffffffffffffffffffffffffffffff169060200190929190505050610839565b005b34801561045257600080fd5b50610487600480360381019080803573ffffffffffffffffffffffffffffffffffffffff169060200190929190505050610a74565b604051808215151515815260200191505060405180910390f35b3480156104ad57600080fd5b506104b6610a94565b005b3480156104c457600080fd5b506104f9600480360381019080803573ffffffffffffffffffffffffffffffffffffffff169060200190929190505050610e79565b604051808273ffffffffffffffffffffffffffffffffffffffff1673ffffffffffffffffffffffffffffffffffffffff16815260200191505060405180910390f35b34801561054757600080fd5b5061056660048036038101908080359060200190929190505050610ee2565b604051808273ffffffffffffffffffffffffffffffffffffffff1673ffffffffffffffffffffffffffffffffffffffff16815260200191505060405180910390f35b60056020528060005260406000206000915054906101000a900473ffffffffffffffffffffffffffffffffffffffff1681565b6000600860008373ffffffffffffffffffffffffffffffffffffffff1673ffffffffffffffffffffffffffffffffffffffff168152602001908152602001600020549050919050565b60011515600760003373ffffffffffffffffffffffffffffffffffffffff1673ffffffffffffffffffffffffffffffffffffffff16815260200190815260200160002060009054906101000a900460ff16151514151561068357600080fd5b6106d581600860003373ffffffffffffffffffffffffffffffffffffffff1673ffffffffffffffffffffffffffffffffffffffff16815260200190815260200160002054610f1590919063ffffffff16565b600860003373ffffffffffffffffffffffffffffffffffffffff1673ffffffffffffffffffffffffffffffffffffffff1681526020019081526020016000208190555050565b60045481565b6000809054906101000a900473ffffffffffffffffffffffffffffffffffffffff1681565b60086020528060005260406000206000915090505481565b60035481565b600160009054906101000a900473ffffffffffffffffffffffffffffffffffffffff1681565b60025481565b6000809054906101000a900473ffffffffffffffffffffffffffffffffffffffff1673ffffffffffffffffffffffffffffffffffffffff163373ffffffffffffffffffffffffffffffffffffffff161415156107eb57600080fd5b80600160006101000a81548173ffffffffffffffffffffffffffffffffffffffff021916908373ffffffffffffffffffffffffffffffffffffffff16021790555050565b6000600254905090565b600160009054906101000a900473ffffffffffffffffffffffffffffffffffffffff1673ffffffffffffffffffffffffffffffffffffffff163373ffffffffffffffffffffffffffffffffffffffff1614151561089557600080fd5b60001515600760008373ffffffffffffffffffffffffffffffffffffffff1673ffffffffffffffffffffffffffffffffffffffff16815260200190815260200160002060009054906101000a900460ff1615151415610a705781600560008373ffffffffffffffffffffffffffffffffffffffff1673ffffffffffffffffffffffffffffffffffffffff16815260200190815260200160002060006101000a81548173ffffffffffffffffffffffffffffffffffffffff021916908373ffffffffffffffffffffffffffffffffffffffff1602179055506001600760008473ffffffffffffffffffffffffffffffffffffffff1673ffffffffffffffffffffffffffffffffffffffff16815260200190815260200160002060006101000a81548160ff0219169083151502179055506000600860008473ffffffffffffffffffffffffffffffffffffffff1673ffffffffffffffffffffffffffffffffffffffff168152602001908152602001600020819055508060066000600254815260200190815260200160002060006101000a81548173ffffffffffffffffffffffffffffffffffffffff021916908373ffffffffffffffffffffffffffffffffffffffff1602179055506002600081548092919060010191905055505b5050565b60076020528060005260406000206000915054906101000a900460ff1681565b6000806000806000806000610ab4610e1042610f1590919063ffffffff16565b60045411151515610ac457600080fd5b6000600254111515610ad557600080fd5b6003543073ffffffffffffffffffffffffffffffffffffffff163110151515610afd57600080fd5b3073ffffffffffffffffffffffffffffffffffffffff16319650610b2c60035488610f3390919063ffffffff16565b955060009450600093505b600254841015610e6957858514158015610b5057508585105b15610e56576006600085815260200190815260200160002060009054906101000a900473ffffffffffffffffffffffffffffffffffffffff16925060035460086000600560008773ffffffffffffffffffffffffffffffffffffffff1673ffffffffffffffffffffffffffffffffffffffff16815260200190815260200160002060009054906101000a900473ffffffffffffffffffffffffffffffffffffffff1673ffffffffffffffffffffffffffffffffffffffff1673ffffffffffffffffffffffffffffffffffffffff168152602001908152602001600020541015610c40578380600101945050610e51565b8273ffffffffffffffffffffffffffffffffffffffff166108fc6003549081150290604051600060405180830381858888f19350505050158015610c88573d6000803e3d6000fd5b507fadd05f920f990977320da86a72f8ac94e81ee4bd23d4addf42eb431e4f23c34a83600354604051808373ffffffffffffffffffffffffffffffffffffffff1673ffffffffffffffffffffffffffffffffffffffff1681526020018281526020019250505060405180910390a1600560008473ffffffffffffffffffffffffffffffffffffffff1673ffffffffffffffffffffffffffffffffffffffff16815260200190815260200160002060009054906101000a900473ffffffffffffffffffffffffffffffffffffffff169150610db16611c37937e08000600860008573ffffffffffffffffffffffffffffffffffffffff1673ffffffffffffffffffffffffffffffffffffffff16815260200190815260200160002054610f4e90919063ffffffff16565b9050610e0581600860008573ffffffffffffffffffffffffffffffffffffffff1673ffffffffffffffffffffffffffffffffffffffff16815260200190815260200160002054610f4e90919063ffffffff16565b600860008473ffffffffffffffffffffffffffffffffffffffff1673ffffffffffffffffffffffffffffffffffffffff1681526020019081526020016000208190555084806001019550505b610e5c565b60025493505b8380600101945050610b37565b4260048190555050505050505050565b6000600560008373ffffffffffffffffffffffffffffffffffffffff1673ffffffffffffffffffffffffffffffffffffffff16815260200190815260200160002060009054906101000a900473ffffffffffffffffffffffffffffffffffffffff169050919050565b60066020528060005260406000206000915054906101000a900473ffffffffffffffffffffffffffffffffffffffff1681565b6000808284019050838110151515610f2957fe5b8091505092915050565b6000808284811515610f4157fe5b0490508091505092915050565b6000828211151515610f5c57fe5b8183039050929150505600a165627a7a72305820f2e7a8bffb5733dfb6ecc825d072969fec0e106cb0e95f84a2b4c301a9d444bf0029",
  "source": "/*\nCopyright 2017, 2018 Conseil départemental des Hauts-de-Seine\n\nThis file is part of Donation.\n\nDonation is free software: you can redistribute it and/or modify\nit under the terms of the GNU General Public License as published by\nthe Free Software Foundation, either version 3 of the License, or\n(at your option) any later version.\n\nDonation is distributed in the hope that it will be useful,\nbut WITHOUT ANY WARRANTY; without even the implied warranty of\nMERCHANTABILITY or FITNESS FOR A PARTICULAR PURPOSE.  See the\nGNU General Public License for more details.\n\nYou should have received a copy of the GNU General Public License\nalong with this program.  If not, see <http://www.gnu.org/licenses/>.\n*/\n\npragma solidity ^0.4.24;\n\nimport \"./SafeMath.sol\";\t\t// update privileges\n\n\ncontract Donation {\n\tusing SafeMath for uint256;\n\n\t// address owning the contract\n\taddress public superAdmin;\n\t// address of the Privilege Request contract\n\taddress public privilegeRequest;\n\t// counter of the number of beneficiaries\n\tuint256 public beneficiaryCount;\n\t// the fixed value to transfer when doing a distribution\n\tuint256 public fixedValue = 0.01 ether;\n\t// last timestamp of execution of the distribute function\n\tuint256 public lastTimestamp = 1532004027;\n\t// mapping of beneficiaries with privilege contract\n\tmapping (address => address) public beneficiaries;\n\t// storage of beneficiaries with positions\n\tmapping (uint => address) public beneficiaryPositions;\n\t// mapping of privileges contracts\n\tmapping (address => bool) public privileges;\n\t// storage of privileges balances\n\tmapping (address => uint256) public privilegesBalances;\n\t// Events\n\tevent evtSendSuccess(address benef, uint amount);\n\n\t// Modifier restricting execution of a function to PrivilegeRequest contract\n\tmodifier onlyPrivilegeRequest {\n\t\trequire(msg.sender == privilegeRequest);\n\t\t_;\n\t}\n\n\t// Modifier restricting execution of a function to superAdmin\n\tmodifier onlyAdmin {\n\t\trequire(msg.sender == superAdmin);\n\t\t_;\n\t}\n\n\t// constructor\n\tconstructor() public {\n\t\tsuperAdmin = msg.sender;\n\t\tbeneficiaryCount = 0;\n\t}\n\n\t// Allows to give wei to this contract via fallback function\n\tfunction () public payable {\n\t}\n\n\n\t// Adding a new beneficiary\n\tfunction registerBeneficiary(address _privilege, address _beneficiary) public onlyPrivilegeRequest {\n\t\tif (privileges[_beneficiary] == false) {\n\t\t\tbeneficiaries[_beneficiary] = _privilege;\n\t\t\t// save new privilege contract\n\t\t\tprivileges[_privilege] = true;\n\t\t\t// privileges count of a beneficiary are initialized to 0\n\t\t\tprivilegesBalances[_privilege] = 0;\n\t\t\tbeneficiaryPositions[beneficiaryCount] = _beneficiary;\n\t\t\tbeneficiaryCount++;\n\t\t}\n\t}\n\n\t// Update privileges\n\tfunction updatePrivileges(uint256 _value) public {\n\t\t// check if the msg.sender is a beneficiary\n\t\trequire(privileges[msg.sender] == true);\n\t\t// add privileges to the beneficiary\n\t\tprivilegesBalances[msg.sender] = privilegesBalances[msg.sender].add(_value);\n\t}\n\n\t// Get the beneficiaries count\n\tfunction getBeneficiaryCount() public view returns (uint) {\n\t\treturn beneficiaryCount;\n\t}\n\n\tfunction getPrivilegeAdr(address _beneficiary) public view returns (address){\n\t\treturn beneficiaries[_beneficiary];\n\t}\n\n\tfunction getPrivileges(address _privilege) public view returns (uint){\n\t\treturn privilegesBalances[_privilege];\n\t}\n\t// Set up the privilegeRequest address by the admin\n\tfunction setPrivilegeRequestAddress(address _privilegeRequest) public onlyAdmin{\n\t\tprivilegeRequest = _privilegeRequest;\n\t}\n\n\t// Make a distribution of don\n\tfunction distribute() public{\n\t\trequire(lastTimestamp <= now.add(1 hours));\n\t\t// check if we already have beneficiaries to make a transfer\n\t\trequire(beneficiaryCount > 0);\n\t\t// check if the balance is suffisant to make a transfer\n\t\trequire(address(this).balance >= fixedValue);\n\n\t\t// balance\n\t\tuint balance = address(this).balance;\n\t\t// determinate the exact number of beneficiaries going to get some ether\n\t\tuint nbBenef = balance.div(fixedValue);\n\t\t// counter to index the number of paid beneficiaries\n\t\tuint counter = 0;\n\n\t\tfor(uint i = 0; i < beneficiaryCount; i++){\n\t\t\t// check if the number of beneficiaries to pay is not achieved\n\t\t\tif(counter != nbBenef && counter < nbBenef){\n\t\t\t\taddress benef = beneficiaryPositions[i];\n\t\t\t\t// check if the beneficiary have enough privilegesBalances to receive a transfer\n\t\t\t\tif(privilegesBalances[beneficiaries[benef]] < fixedValue){\n\t\t\t\t\t// if the beneficiary haven't enough, we will move to the next one\n\t\t\t\t\ti++;\n\t\t\t\t}\n\t\t\t\telse{\n\t\t\t\t\t// if he have enough, transfer the \"fixedValue\"\n\t\t\t\t\tbenef.transfer(fixedValue);\n\t\t\t\t\temit evtSendSuccess(benef, fixedValue);\n\t\t\t\t\t// update his privileges\n\t\t\t\t\taddress privilege = beneficiaries[benef];\n\t\t\t\t\tuint256 newPrivilege = (privilegesBalances[privilege]).sub(5000000000000000);\n\t\t\t\t\tprivilegesBalances[privilege] = privilegesBalances[privilege].sub(newPrivilege);\n\t\t\t\t\tcounter ++;\n\t\t\t\t}\n\t\t\t}\n\t\t\telse{\n\t\t\t\t// if the number of beneficiaries to pay is achieved\n\t\t\t\ti = beneficiaryCount;\n\t\t\t}\n\t\t}\n\t\t// update the timestamp with the new time of execution\n\t\tlastTimestamp = now;\n\t}\n\n}\n",
  "sourcePath": "/home/yosra/Documents/Crypto4all/Projet-externe/CD92/donation/solidity/contracts/Donation.sol",
  "compiler": {
    "name": "solc",
    "version": "0.4.24+commit.e67f0147.Emscripten.clang"
  },
  "schemaVersion": "2.0.0",
  "updatedAt": "2018-07-23T07:45:35.210Z"
}