{
  "contractName": "Donation",
  "abi": [
    {
      "inputs": [
        {
          "name": "_certifier",
          "type": "address"
        }
      ],
      "payable": false,
      "stateMutability": "nonpayable",
      "type": "constructor"
    },
    {
      "payable": true,
      "stateMutability": "payable",
      "type": "fallback"
    },
    {
      "anonymous": false,
      "inputs": [
        {
          "indexed": false,
          "name": "benef",
          "type": "address"
        },
        {
          "indexed": false,
          "name": "amount",
          "type": "uint256"
        }
      ],
      "name": "evtSendFailed",
      "type": "event"
    },
    {
      "anonymous": false,
      "inputs": [
        {
          "indexed": false,
          "name": "benef",
          "type": "address"
        },
        {
          "indexed": false,
          "name": "amount",
          "type": "uint256"
        }
      ],
      "name": "evtSendSuccess",
      "type": "event"
    },
    {
      "anonymous": false,
      "inputs": [
        {
          "indexed": false,
          "name": "amount",
          "type": "uint256"
        },
        {
          "indexed": false,
          "name": "nbBenef",
          "type": "uint256"
        }
      ],
      "name": "evtSpread",
      "type": "event"
    },
    {
      "constant": false,
      "inputs": [
        {
          "name": "_newAdmin",
          "type": "address"
        }
      ],
      "name": "transferAdminRights",
      "outputs": [],
      "payable": false,
      "stateMutability": "nonpayable",
      "type": "function"
    },
    {
      "constant": false,
      "inputs": [
        {
          "name": "_newCertifier",
          "type": "address"
        }
      ],
      "name": "transferCertifierRights",
      "outputs": [],
      "payable": false,
      "stateMutability": "nonpayable",
      "type": "function"
    },
    {
      "constant": false,
      "inputs": [
        {
          "name": "_beneficiary",
          "type": "address"
        }
      ],
      "name": "registerBeneficiary",
      "outputs": [],
      "payable": false,
      "stateMutability": "nonpayable",
      "type": "function"
    },
    {
      "constant": false,
      "inputs": [
        {
          "name": "_beneficiary",
          "type": "address"
        }
      ],
      "name": "unregisterBeneficiary",
      "outputs": [],
      "payable": false,
      "stateMutability": "nonpayable",
      "type": "function"
    },
    {
      "constant": true,
      "inputs": [],
      "name": "getBeneficiaryCount",
      "outputs": [
        {
          "name": "",
          "type": "uint256"
        }
      ],
      "payable": false,
      "stateMutability": "view",
      "type": "function"
    },
    {
      "constant": true,
      "inputs": [
        {
          "name": "startIndex",
          "type": "uint256"
        },
        {
          "name": "size",
          "type": "uint256"
        }
      ],
      "name": "getPaginateBeneficiaries",
      "outputs": [
        {
          "name": "",
          "type": "address[100]"
        }
      ],
      "payable": false,
      "stateMutability": "view",
      "type": "function"
    },
    {
      "constant": true,
      "inputs": [
        {
          "name": "startIndex",
          "type": "uint256"
        },
        {
          "name": "size",
          "type": "uint256"
        }
      ],
      "name": "getPaginateActiveBeneficiaries",
      "outputs": [
        {
          "name": "",
          "type": "address[100]"
        }
      ],
      "payable": false,
      "stateMutability": "view",
      "type": "function"
    },
    {
      "constant": false,
      "inputs": [
        {
          "name": "_value",
          "type": "uint256"
        }
      ],
      "name": "distribute",
      "outputs": [],
      "payable": false,
      "stateMutability": "nonpayable",
      "type": "function"
    }
  ],
  "bytecode": "0x608060405234801561001057600080fd5b5060405160208061106f83398101806040528101908080519060200190929190505050336000806101000a81548173ffffffffffffffffffffffffffffffffffffffff021916908373ffffffffffffffffffffffffffffffffffffffff16021790555080600160006101000a81548173ffffffffffffffffffffffffffffffffffffffff021916908373ffffffffffffffffffffffffffffffffffffffff1602179055506000600281905550600060038190555050610f9b806100d46000396000f30060806040526004361061008e576000357c0100000000000000000000000000000000000000000000000000000000900463ffffffff168063392ab5e8146100905780634f3e0f1e1461010357806371d0028d1461017657806391c05b0b146101b95780639a6e7fd1146101e6578063b5106add14610211578063c6883e9214610254578063cdd8b2b214610297575b005b34801561009c57600080fd5b506100c560048036038101908080359060200190929190803590602001909291905050506102da565b6040518082606460200280838360005b838110156100f05780820151818401526020810190506100d5565b5050505090500191505060405180910390f35b34801561010f57600080fd5b50610138600480360381019080803590602001909291908035906020019092919050505061042b565b6040518082606460200280838360005b83811015610163578082015181840152602081019050610148565b5050505090500191505060405180910390f35b34801561018257600080fd5b506101b7600480360381019080803573ffffffffffffffffffffffffffffffffffffffff169060200190929190505050610518565b005b3480156101c557600080fd5b506101e4600480360381019080803590602001909291905050506106a2565b005b3480156101f257600080fd5b506101fb6109f7565b6040518082815260200191505060405180910390f35b34801561021d57600080fd5b50610252600480360381019080803573ffffffffffffffffffffffffffffffffffffffff169060200190929190505050610a01565b005b34801561026057600080fd5b50610295600480360381019080803573ffffffffffffffffffffffffffffffffffffffff169060200190929190505050610a9f565b005b3480156102a357600080fd5b506102d8600480360381019080803573ffffffffffffffffffffffffffffffffffffffff169060200190929190505050610b3e565b005b6102e2610f4b565b6102ea610f4b565b6000806000809250606486111561030057606495505b6003548710151561031357839450610421565b600354868801111561032757866003540395505b600091505b8582101561041d5760046000838901815260200190815260200160002060009054906101000a900473ffffffffffffffffffffffffffffffffffffffff169050600560008273ffffffffffffffffffffffffffffffffffffffff1673ffffffffffffffffffffffffffffffffffffffff16815260200190815260200160002060000160019054906101000a900460ff1615610410578084846064811015156103d057fe5b602002019073ffffffffffffffffffffffffffffffffffffffff16908173ffffffffffffffffffffffffffffffffffffffff168152505082806001019350505b818060010192505061032c565b8394505b5050505092915050565b610433610f4b565b61043b610f4b565b600080606485111561044c57606494505b6003548610151561045f5782935061050f565b600354858701111561047357856003540394505b600091505b8482101561050b5760046000838801815260200190815260200160002060009054906101000a900473ffffffffffffffffffffffffffffffffffffffff1690508083836064811015156104c757fe5b602002019073ffffffffffffffffffffffffffffffffffffffff16908173ffffffffffffffffffffffffffffffffffffffff16815250508180600101925050610478565b8293505b50505092915050565b600160009054906101000a900473ffffffffffffffffffffffffffffffffffffffff1673ffffffffffffffffffffffffffffffffffffffff163373ffffffffffffffffffffffffffffffffffffffff1614151561057457600080fd5b60011515600560008373ffffffffffffffffffffffffffffffffffffffff1673ffffffffffffffffffffffffffffffffffffffff16815260200190815260200160002060000160009054906101000a900460ff1615151415156105d657600080fd5b6000600560008373ffffffffffffffffffffffffffffffffffffffff1673ffffffffffffffffffffffffffffffffffffffff16815260200190815260200160002060000160016101000a81548160ff0219169083151502179055506000600560008373ffffffffffffffffffffffffffffffffffffffff1673ffffffffffffffffffffffffffffffffffffffff16815260200190815260200160002060000160026101000a81548160ff0219169083151502179055506002600081548092919060019003919050555050565b6000806000806000600160009054906101000a900473ffffffffffffffffffffffffffffffffffffffff1673ffffffffffffffffffffffffffffffffffffffff163373ffffffffffffffffffffffffffffffffffffffff1614151561070657600080fd5b853073ffffffffffffffffffffffffffffffffffffffff16311015151561072c57600080fd5b600060025411151561073d57600080fd5b3073ffffffffffffffffffffffffffffffffffffffff1631945061076a8686610e6390919063ffffffff16565b935060009250600091505b6003548210156109ef5783831415801561078e57508383105b156109dc576004600083815260200190815260200160002060009054906101000a900473ffffffffffffffffffffffffffffffffffffffff16905060011515600560008373ffffffffffffffffffffffffffffffffffffffff1673ffffffffffffffffffffffffffffffffffffffff16815260200190815260200160002060000160029054906101000a900460ff161515148061087e575060001515600560008373ffffffffffffffffffffffffffffffffffffffff1673ffffffffffffffffffffffffffffffffffffffff16815260200190815260200160002060000160019054906101000a900460ff161515145b156108905781806001019250506109d7565b8073ffffffffffffffffffffffffffffffffffffffff166108fc879081150290604051600060405180830381858888f193505050501580156108d6573d6000803e3d6000fd5b507fadd05f920f990977320da86a72f8ac94e81ee4bd23d4addf42eb431e4f23c34a8187604051808373ffffffffffffffffffffffffffffffffffffffff1673ffffffffffffffffffffffffffffffffffffffff1681526020018281526020019250505060405180910390a182806001019350506001600560008373ffffffffffffffffffffffffffffffffffffffff1673ffffffffffffffffffffffffffffffffffffffff16815260200190815260200160002060000160026101000a81548160ff0219169083151502179055506109bb6001600354610e7e90919063ffffffff16565b821480156109c857508383105b156109d6576109d5610e97565b5b5b6109e2565b60035491505b8180600101925050610775565b505050505050565b6000600254905090565b6000809054906101000a900473ffffffffffffffffffffffffffffffffffffffff1673ffffffffffffffffffffffffffffffffffffffff163373ffffffffffffffffffffffffffffffffffffffff16141515610a5c57600080fd5b806000806101000a81548173ffffffffffffffffffffffffffffffffffffffff021916908373ffffffffffffffffffffffffffffffffffffffff16021790555050565b6000809054906101000a900473ffffffffffffffffffffffffffffffffffffffff1673ffffffffffffffffffffffffffffffffffffffff163373ffffffffffffffffffffffffffffffffffffffff16141515610afa57600080fd5b80600160006101000a81548173ffffffffffffffffffffffffffffffffffffffff021916908373ffffffffffffffffffffffffffffffffffffffff16021790555050565b600160009054906101000a900473ffffffffffffffffffffffffffffffffffffffff1673ffffffffffffffffffffffffffffffffffffffff163373ffffffffffffffffffffffffffffffffffffffff16141515610b9a57600080fd5b60001515600560008373ffffffffffffffffffffffffffffffffffffffff1673ffffffffffffffffffffffffffffffffffffffff16815260200190815260200160002060000160009054906101000a900460ff1615151415610d3a5760606040519081016040528060011515815260200160011515815260200160001515815250600560008373ffffffffffffffffffffffffffffffffffffffff1673ffffffffffffffffffffffffffffffffffffffff16815260200190815260200160002060008201518160000160006101000a81548160ff02191690831515021790555060208201518160000160016101000a81548160ff02191690831515021790555060408201518160000160026101000a81548160ff0219169083151502179055509050508060046000600354815260200190815260200160002060006101000a81548173ffffffffffffffffffffffffffffffffffffffff021916908373ffffffffffffffffffffffffffffffffffffffff160217905550600260008154809291906001019190505550600360008154809291906001019190505550610e60565b60001515600560008373ffffffffffffffffffffffffffffffffffffffff1673ffffffffffffffffffffffffffffffffffffffff16815260200190815260200160002060000160019054906101000a900460ff1615151415610e5f576001600560008373ffffffffffffffffffffffffffffffffffffffff1673ffffffffffffffffffffffffffffffffffffffff16815260200190815260200160002060000160016101000a81548160ff0219169083151502179055506000600560008373ffffffffffffffffffffffffffffffffffffffff1673ffffffffffffffffffffffffffffffffffffffff16815260200190815260200160002060000160026101000a81548160ff0219169083151502179055506002600081548092919060010191905055505b5b50565b6000808284811515610e7157fe5b0490508091505092915050565b6000828211151515610e8c57fe5b818303905092915050565b600080600091505b600354821015610f47576004600083815260200190815260200160002060009054906101000a900473ffffffffffffffffffffffffffffffffffffffff1690506000600560008373ffffffffffffffffffffffffffffffffffffffff1673ffffffffffffffffffffffffffffffffffffffff16815260200190815260200160002060000160026101000a81548160ff0219169083151502179055508180600101925050610e9f565b5050565b610c80604051908101604052806064906020820280388339808201915050905050905600a165627a7a7230582004d41a84a23dcf1990713deda48a5f2592bbf10fe406a3d5fe8e31697e7435530029",
  "source": "/*\nCopyright 2017, 2018 Conseil départemental des Hauts-de-Seine\n\nThis file is part of Donation.\n\nDonation is free software: you can redistribute it and/or modify\nit under the terms of the GNU General Public License as published by\nthe Free Software Foundation, either version 3 of the License, or\n(at your option) any later version.\n\nDonation is distributed in the hope that it will be useful,\nbut WITHOUT ANY WARRANTY; without even the implied warranty of\nMERCHANTABILITY or FITNESS FOR A PARTICULAR PURPOSE.  See the\nGNU General Public License for more details.\n\nYou should have received a copy of the GNU General Public License\nalong with this program.  If not, see <http://www.gnu.org/licenses/>.\n*/\n\npragma solidity ^0.4.24;\n\nimport \"./SafeMath.sol\";\n\ncontract Donation {\n\tusing SafeMath for uint256;\n\n\t// address owning the contract\n\taddress superAdmin;\n\n\t// address of the certifier\n\taddress certifier;\n\n\t// counter of number of beneficiaries\n\tuint beneficiaryCount;\n\tuint beneficiaryCountMax;\n\t// storage of beneficiaries\n\tmapping (uint => address) beneficiaryPositions;\n\tstruct BeneficiaryData {\n\t\tbool isSet;\n\t\tbool active;\n\t\tbool paid;\n\t}\n\tmapping (address => BeneficiaryData) beneficiaries;\n\n\t// Events\n\tevent evtSendFailed(address benef, uint amount);\n\tevent evtSendSuccess(address benef, uint amount);\n\tevent evtSpread(uint amount, uint nbBenef);\n\n\t// constructor\n\tconstructor(address _certifier) public {\n\t\tsuperAdmin = msg.sender;\n\t\tcertifier = _certifier;\n\t\tbeneficiaryCount = 0;\n\t\tbeneficiaryCountMax = 0;\n\t}\n\n\t// Allows to give wei to this contract via fallback function\n\tfunction () public payable {\n\t}\n\n        /*\n  \tTransfer contract ownership to a new address\n  \tparam _newAdmin address of the new super admin\n  \t*/\n\tfunction transferAdminRights(address _newAdmin) public onlySuperAdmin {\n\t\tsuperAdmin = _newAdmin;\n\t}\n        /*\n        Transfer contract certifier role to a new address\n        param _newCertifier address of the new certifier\n        */\n        function transferCertifierRights(address _newCertifier) public onlySuperAdmin {\n                certifier = _newCertifier;\n        }\n\t// Modifier restricting execution of a function to SuperAdmin\n\tmodifier onlySuperAdmin {\n\t    require(msg.sender == superAdmin);\n\t    _;\n\t}\n\n\t// Modifier restricting execution of a function to Certifier\n\tmodifier onlyCertifier {\n\t    require(msg.sender == certifier);\n\t    _;\n\t}\n\n\t// Before adding a new beneficiary, the contrat spread its balance among existing beneficiaries\n\tfunction registerBeneficiary(address _beneficiary) public onlyCertifier {\n\t\tif (beneficiaries[_beneficiary].isSet == false) {\n\t\t\t// create new beneficiary\n\t\t\tbeneficiaries[_beneficiary] = BeneficiaryData(true, true, false);\n\t\t\tbeneficiaryPositions[beneficiaryCountMax] = _beneficiary;\n\t\t\tbeneficiaryCount++;\n\t\t\tbeneficiaryCountMax++;\n\t\t}\n\t\telse if (beneficiaries[_beneficiary].active == false) {\n\t\t\t// reactivate existing beneficiary\n\t\t\tbeneficiaries[_beneficiary].active = true;\n\t\t\tbeneficiaries[_beneficiary].paid = false;\n\t\t\tbeneficiaryCount++;\n\t\t}\n\t}\n\n\t// Before removing an existing beneficiary, the contrat spread its balance among existing beneficiaries\n\tfunction unregisterBeneficiary(address _beneficiary) public onlyCertifier {\n\t\trequire(beneficiaries[_beneficiary].isSet == true);\n\t\tbeneficiaries[_beneficiary].active = false;\n\t\tbeneficiaries[_beneficiary].paid = false;\n\t\tbeneficiaryCount--;\n\t}\n\n\tfunction getBeneficiaryCount() public view returns (uint) {\n\t\treturn beneficiaryCount;\n\t}\n\n\t// Paginate search of beneficiaries that has been registered at least once\n\t// starting from startIndex and returns 100 max beneficiaries.\n\tfunction getPaginateBeneficiaries(uint startIndex, uint size) public view returns (address[100]) {\n\t\taddress[100] memory res;\n\t\tif (size > 100)\n\t\t\tsize = 100;\n\t\tif (startIndex >= beneficiaryCountMax) {\n\t\t\treturn res;\n\t\t}\n\t\tif (startIndex + size > beneficiaryCountMax) {\n\t\t\tsize = beneficiaryCountMax - startIndex;\n\t\t}\n\t\tfor (uint i = 0; i < size; i++) {\n\t\t\taddress benef = beneficiaryPositions[startIndex+i];\n\t\t\tres[i] = benef;\n\t\t}\n\t\treturn res;\n\t}\n\n\t// Paginate search of beneficiaries that has been registered at least once\n\t// starting from startIndex and returns 100 max beneficiaries.\n\tfunction getPaginateActiveBeneficiaries(uint startIndex, uint size) public view returns (address[100]) {\n\t\taddress[100] memory res;\n\t\tuint counter = 0;\n\t\tif (size > 100)\n\t\t\tsize = 100;\n\t\tif (startIndex >= beneficiaryCountMax) {\n\t\t\treturn res;\n\t\t}\n\t\tif (startIndex + size > beneficiaryCountMax) {\n\t\t\tsize = beneficiaryCountMax - startIndex;\n\t\t}\n\t\tfor (uint i = 0; i < size; i++) {\n\t\t\taddress benef = beneficiaryPositions[startIndex+i];\n\t\t\tif (beneficiaries[benef].active) {\n\t\t\t\tres[counter] = benef;\n\t\t\t\tcounter++;\n\t\t\t}\n\t\t}\n\t\treturn res;\n\t}\n\n\nfunction distribute(uint256 _value) public onlyCertifier {\n\trequire(address(this).balance >= _value);\n\trequire(beneficiaryCount > 0);\n\n\tuint balance = address(this).balance;\n\tuint nbBenef = balance.div(_value);\n\tuint counter = 0;\n\n\t// parcours de la liste des beneficiaires\n\tfor(uint i = 0; i < beneficiaryCountMax; i++){\n\t\t// check si le nombre exacte des bénéficiaires à payer est atteint\n\t\tif(counter != nbBenef && counter < nbBenef){\n\t\t\taddress benef = beneficiaryPositions[i];\n\t\t\t// Si le bénéficiaire est payé ou le bénéficiaire n'est pas actif, on passe au suivant\n\t\t\tif(beneficiaries[benef].paid == true || beneficiaries[benef].active == false){\n\t\t\t\ti++;\n\t\t\t}\n\t\t\telse{\n\t\t\t\t// on paye le bénéficiaire\n\t\t\t\tbenef.transfer(_value);\n\t\t\t\temit evtSendSuccess(benef, _value);\n\t\t\t\tcounter ++;\n\t\t\t\tbeneficiaries[benef].paid = true;\n\t\t\t\tif(i == beneficiaryCountMax.sub(1) && counter < nbBenef){\n\t\t\t\t\tresetPayment();\n\t\t\t\t}\n\t\t\t}\n\t\t}\n\t\telse{\n\t\t\t// les bénéficiaires sont payés, on force la sortie de la boucle\n\t\t\ti = beneficiaryCountMax;\n\t\t}\n\t}\n}\n\nfunction resetPayment() internal{\n\tfor(uint i = 0; i < beneficiaryCountMax; i++){\n\t\taddress benef = beneficiaryPositions[i];\n\t\tbeneficiaries[benef].paid = false;\n\t}\n}\n}\n",
  "sourcePath": "/home/yosra/Documents/Crypto4all/Projet-externe/CD92/donation/solidity/contracts/Donation.sol",
  "compiler": {
    "name": "solc",
    "version": "0.4.24+commit.e67f0147.Emscripten.clang"
  },
  "schemaVersion": "2.0.0",
  "updatedAt": "2018-07-09T13:44:55.747Z"
}